:100000000C94E8020C9410030C9410030C9410034D
:100010000C9410030C9410030C9410030C94100314
:100020000C9410030C9410030C946D0E0C94DC0EC5
:100030000C9410030C9410030C9410030C941003F4
:100040000C9410030C9410030C9410030C941003E4
:100050000C9410030C9410030C9410030C940E11C8
:100060000C9410030C9410030C9410030C941003C4
:100070000C9410030C9410030C9410030C941003B4
:100080000C9410030C9410030C9410030C941003A4
:100090000C9458110C9410030C9410030C9410033E
:1000A0000C9410030C9410030C9410030000000037
:1000B000000000002A2B28000000000000000000C3
:1000C0000000000000000000000000002C9EB4A012
:1000D000A1A2A434A6A7A5AE362D3738271E1F200F
:1000E000212223242526B333B62EB7B89F848586D4
:1000F0008788898A8B8C8D8E8F9091929394959618
:100100009798999A9B9C9D2F3130A3AD3504050695
:100110000708090A0B0C0D0E0F10111213141516F7
:100120001718191A1B1C1DAFB1B0B5000000000054
:10013000240027002A002D003000000000002500C8
:1001400028002B002E0031000000000023002600B4
:1001500029002C002F0004040404040304050202F7
:100160000202040302020202060606060606040450
:1001700002020204040408020110408040102040E2
:10018000804080080204018040201002011080108D
:10019000204040200000000200090F00000304017D
:1001A000000C000000000000000000000000000043
:1001B000000000080B000202020000090400000118
:1001C000020200000524001001052401010104249D
:1001D00002060524060001070581031000400904FA
:1001E0000100020A000000070502024000000705A6
:1001F00083024000000403090412010002EF02011F
:100200004041233780000101020301417264756996
:100210006E6F204C4C430041726475696E6F204DC7
:100220006963726F00050820B10000000000000043
:100230002F00000007000700147F147F14242A7F7A
:100240002A12231308646236495522500005030020
:1002500000001C2241000041221C0014083E08142A
:1002600008083E08080000A0600008080808080008
:100270006060000020100804023E5149453E0042E3
:100280007F400042615149462141454B31181412CB
:100290007F1027454545393C4A49493001710905D8
:1002A000033649494936064949291E0036360000B9
:1002B00000563600000814224100141414141400CF
:1002C000412214080201510906324959513E7C125B
:1002D00011127C7F494949363E414141227F4141CB
:1002E000221C7F494949417F090909013E41494989
:1002F0007A7F0808087F00417F41002040413F018C
:100300007F081422417F404040407F020C027F7FE3
:100310000408107F3E4141413E7F090909063E41E4
:1003200051215E7F09192946464949493101017F1A
:1003300001013F4040403F1F2040201F3F403840C8
:100340003F63140814630708700807615149454367
:10035000007F41410001060830400041417F000418
:1003600002010204404040404000030500002054C8
:100370005454787F484444383844444420384444F2
:10038000487F3854545418087E09010218A4A4A4C4
:100390007C7F0804047800447D40004080847D0018
:1003A0007F1028440000417F40007C041804787CC2
:1003B000080404783844444438FC242424181824BD
:1003C0002418FC7C080404084854545420043F4476
:1003D00040203C4040207C1C2040201C3C403040C1
:1003E0003C44281028441CA0A0A07C4464544C44E5
:1003F00000107C82000000FF000000827C100008DA
:10040000040810087C1211127C7F494949317F454C
:1004100045453A7F01010103603F213F607F494923
:100420004941730C7F0C732141494D337F100804FF
:100430007F7E2011087E7F08142241403F01017F0A
:100440007F0608067F7F0808087F3E4141413E7FC6
:100450000101017F7F090909063E41414122030153
:100460007F010361261806011C227F221C631408E9
:1004700014633F20203F60070808087F7F407F40CB
:100480007F3F203F207F017F4848307F4878007FB2
:100490007F484830004149492A1C7F103E413E6652
:1004A0001909097F20545478403E494545387E4A11
:1004B0004A34007C04040C00384545493E38545405
:1004C00054184C307C304C24424A34007C20107C40
:1004D000007C21117C007C10284400403C04047CFA
:1004E0007C0810087C7C10107C0038444444387C24
:1004F00004047C00FC1824241838444444280404D0
:100500007C04044C9090907C18247E24184428107D
:1005100028443C20203C601C10107C007C407C4027
:100520007C3C203C207C047C5070007C5070007C23
:100530007C50700000424252523C7C10384438409B
:100540002C127E007E4B4A4B4238555455187C0481
:1005500005040000780A09003E49494122385454F4
:10056000442800417F410000447D400000457C4517
:100570000000457C41002344390403244932090426
:100580007E020202017C04040200004A5529000098
:100590000609090644445F44447C10103C400501B0
:1005A0000906A1018502050719E029E715002501C3
:1005B00075019508810295017508810395067508F6
:1005C000150025730507190029738100C0007712F3
:1005D00011241FBECFEFDAE0DEBFCDBF13E0A0E0F5
:1005E000B1E0E0E2F1E302C005900D92A43BB10757
:1005F000D9F725E0A4EBB3E001C01D92A936B207FC
:10060000E1F712E0C8EED2E004C02197FE010E949B
:100610004C18C73ED107C9F70E9439130C948E18A5
:100620000C940000CF93DF93FC01818190913405FD
:10063000482F490F5527551F483051059CF5A28179
:10064000B381109709F520E335E0338322832081BD
:10065000209332058093330580913505820F808386
:1006600020913605A22FB09137058A2F821B89175A
:10067000E8F481813D91C82FD0E0C45FDE4F38831C
:100680008F5F8183F2CFD90118962D913C911997F4
:1006900021153105C1F720E335E019963C932E93DF
:1006A0001897D5CF80E0DF91CF91089581E0FBCFFF
:1006B000FC0180916D04882311F13FB7F89482E02A
:1006C0008093E9002091F200822F90E0181619061D
:1006D00014F481E090E0882339F0289A44E64093AE
:1006E0006C044091F1004083222339F02091F20004
:1006F000211103C02BE62093E8003FBF08958FEF40
:100700009FEF0895CF93DF931F92CDB7DEB7698334
:10071000DC01ED91FC910280F381E02D41E050E09D
:10072000BE016F5F7F4F09950F90DF91CF910895C4
:1007300083E08093E9008091F200882319F08AE336
:100740008093E8000895CF93DF931F92CDB7DEB773
:10075000FC018485958597FD08C02FEF3FEF358715
:1007600024870F90DF91CF910895CE0101960E94CA
:100770005803019719F4898190E0F3CF8FEF9FEF31
:10078000F0CF0F931F93CF93DF931F92CDB7DEB7B8
:100790008C01FC018485958597FF0BC0CE010196E5
:1007A0000E945803019771F4898190E0F8019587C0
:1007B0008487F801848595850F90DF91CF911F91F3
:1007C0000F9108958FEF9FEFF1CFFC018485958500
:1007D00097FD0BC09FB7F89482E08093E900809169
:1007E000F2009FBF90E0019608959FB7F89482E0D1
:1007F0008093E9008091F2009FBF90E008950895F2
:100800000895089540912C0450912D0420912A04BC
:1008100030912B0442175307B4F49091E80095707F
:10082000E1F39091E80092FD19C08093F10080916E
:100830002C0490912D0401968F739927892B19F41C
:100840008EEF8093E80080912C0490912D04019606
:1008500090932D0480932C0481E0089580E0089506
:10086000EF92FF920F931F93CF93DF93F82E192FE0
:10087000E62E042F81E0860F880F0E94020483E099
:100880000E940204CF2DD12FEC0EFD2EF11CCE15AF
:10089000DF05B9F007FF13C0FE0184910E94020436
:1008A000182F80E00E940204812321968111EFCF4E
:1008B000DF91CF911F910F91FF90EF900895888164
:1008C000EDCF81E0F5CFDF92EF92FF920F931F9370
:1008D000CF93DF93D82E8A01EB017B01E40EF51E46
:1008E000CE15DF0559F0D7FE12C0FE0184910E949B
:1008F000020421968111F4CF0FEF1FEFC801DF91A1
:10090000CF911F910F91FF90EF90DF900895888114
:10091000EECF2FB7F89487708093E9009091E800AC
:10092000892F807295FF04C09091F20080E4891BAA
:100930002FBF089583E00E94890490E008956150DC
:1009400030F02091F100FC0120830196F8CF289A25
:1009500084E680936C0408958091220481110DC077
:1009600082E080931E0484E080931F04109221048F
:100970001092200481E0809322048EE194E0089597
:100980000F931F93CF93DF931F92CDB7DEB782E013
:10099000898342E450E063EB71E080E80E946304E5
:1009A0000E94AC04DC0112960D911C9101151105F9
:1009B00089F0D801ED91FC910280F381E02DBE0118
:1009C0006F5F7F4FC801099597FD04C0F80100854E
:1009D0001185ECCF89810F90DF91CF911F910F91FD
:1009E000089581508F3008F047C0E82FF0E0E550BF
:1009F000FB4F0C944C1818051C050A05100514052E
:100A00003C053C053C051F05250529052D0533053D
:100A10003C053705809180008F7780938000089592
:100A2000809180008F7DF9CF80918000877FF5CF06
:100A300084B58F7784BD089584B58F7DFBCF809179
:100A400090008F77809390000895809190008F7D23
:100A5000F9CF80919000877FF5CF8091C0008F778C
:100A60008093C00008958091C0008F7DF9CF809160
:100A7000C200877F8093C2000895CF93DF93282F11
:100A800030E0F901EC56FE4F8491F901EB58FE4F2E
:100A9000D491F901EA5AFE4FC491CC23A1F08111FF
:100AA0000E94F104EC2FF0E0EE0FFF1FE85BFE4F19
:100AB000A591B491EC91ED2381E090E009F480E000
:100AC000DF91CF91089580E090E0FACF1F93CF930C
:100AD000DF93282F30E0F901EC56FE4F8491F901A5
:100AE000EB58FE4FD491F901EA5AFE4FC491CC2342
:100AF000A9F0162F81110E94F104EC2FF0E0EE0F07
:100B0000FF1FE65CFE4FA591B4918FB7F894EC916E
:100B1000111108C0D095DE23DC938FBFDF91CF91F8
:100B20001F910895DE2BF8CFCF93DF9390E0FC0167
:100B3000EB58FE4F24918A5A9E4FFC0184918823E2
:100B4000D1F090E0880F991FFC01E45DFE4FA59164
:100B5000B491FC01E65CFE4FC591D49161110EC0C9
:100B60009FB7F8948C91E22FE0958E238C93288187
:100B7000E223E8839FBFDF91CF9108958FB7F89468
:100B8000EC91E22BEC938FBFF6CF3FB7F8948091B6
:100B90001A0490911B04A0911C04B0911D0426B569
:100BA000A89B05C02F3F19F00196A11DB11D3FBFA5
:100BB000BA2FA92F982F8827BC01CD01620F711D74
:100BC000811D911D42E0660F771F881F991F4A956E
:100BD000D1F708958F929F92AF92BF92CF92DF92FA
:100BE000EF92FF924B015C010E94C5056B017C01F5
:100BF0000E94C5056C197D098E099F09683E7340E6
:100C000081059105A8F321E0821A9108A108B10895
:100C100088EEC80E83E0D81EE11CF11C81149104FB
:100C2000A104B10429F7FF90EF90DF90CF90BF901F
:100C3000AF909F908F9008957F928F929F92AF92E6
:100C4000BF92CF92DF92EF92FF920F931F93CF93B9
:100C5000DF93C82E8B017A0180916D04811110C041
:100C60008FEF9FEFDF91CF911F910F91FF90EF904A
:100C7000DF90CF90BF90AF909F908F907F9008951E
:100C80008091300480FF05C08091E00082608093F5
:100C9000E000CE2DDF2DD12C8AEFB82E8C2D877061
:100CA000982E8C2D8072882E8C2D8074782E9AE34D
:100CB000A92E209719F4DD2009F452C08C2D0E9432
:100CC000890481110AC0BA94BB2051F261E070E03E
:100CD00080E090E00E94EA05ECCF8C171D0611F031
:100CE0000CF08C2F9FB7F8949092E9002091E800C7
:100CF00025FD02C09FBFDDCF282F30E0C21BD30BE4
:100D0000882029F08150A0F01092F100FBCFF8016B
:100D1000C7FC0AC0815050F041914093F100FACFD6
:100D200044914093F10031968150D0F7020F131F88
:100D3000DD2021F0A092E800D12CDCCF8091E800EA
:100D400085FD07C0A092E800DD24D394209791F29E
:100D5000F3CF209779F6772069F2A092E800CACF06
:100D60005D9A84E680932F04C7017CCFEF92FF92B7
:100D70001F93CF93DF931F92CDB7DEB77C01809195
:100D8000410581112AC011E01093340510933505F7
:100D90008AE395E0909337058093360510923905E4
:100DA0001092380587E392E09093310580933005E7
:100DB00010923C0510923B0510923E0510923D05A5
:100DC00010933F051093400581EC80933A050E94F3
:100DD000AC040E9412031093410582E0898341E034
:100DE00050E0BE016F5F7F4F809133050E941C066B
:100DF00097FD08C08091330548E050E0B70180645A
:100E00000E941C060F90DF91CF911F91FF90EF90F1
:100E10000895CF93DF93EC0180910B01882331F08B
:100E200083E00E941C061816190634F081E090E059
:100E30009B838A8380E090E0DF91CF910895803D8D
:100E400091F068F4823C79F09091180491110FC0F0
:100E500090EE980F9F3508F475C08AE20895813DA1
:100E600011F0823D89F7809318048FEF0895903D2B
:100E7000D9F41092180490E7980F903310F4815130
:100E80000895813809F443C0833809F442C0843896
:100E900009F441C0863809F440C0873809F43FC0DE
:100EA0008E38D9F689EC0895913DB1F4109218046A
:100EB00090E8980F903110F4815D0895813989F19F
:100EC000833989F1843989F1863989F1873989F142
:100ED0008E3919F68AEC0895923D49F4109218045F
:100EE000803949F1813909F0B8CF8CEC0895923CF2
:100EF00009F0B3CF10921804873AF9F0803BF9F06B
:100F0000813BF9F0853B09F0A8CF80ED08958FEB88
:100F1000089581EC089583EC089585EC089587EC9D
:100F2000089580EC089582EC089584EC089586EC91
:100F3000089588EC08958BEC08958DEC08958EEC5F
:100F400008958FEC08952091F503260F3327331F62
:100F500021323105ECF420919404FC0190E080E012
:100F6000243069F082E00895A091F5032191AC014D
:100F70004B525C4FA40FB52FB11D2C9301968617D1
:100F800098F38091F503680F6093F50380E008956E
:100F900081E008951092940481E08093930410926C
:100FA0006E0461E082E00E94660561E083E00E94D9
:100FB0006605E9EBF0E080818E7F808380818D7F04
:100FC000808388E48093B80085E48093BC00089512
:100FD000CF93DF9391E09093D4038823B9F0C0912D
:100FE000B800D091BA008091BC008A7B8093BC008D
:100FF00060E082E00E94660560E083E00E94660592
:101000000E94CA07D093BA00C093B800DF91CF9175
:101010000895CF92DF92EF92FF920F931F93CF9399
:10102000DF93D091BD0481E0D13208F09CC0C09123
:10103000BC040E94C5056B017C0180919404811160
:101040006CC082E08093940481E0809393048FEFDE
:101050008093920410929104D0939004ACE9B4E090
:10106000E0E7F4E080E0D8138DC010926F04809127
:101070006F04CC0FC82BC0936F0480916E04813035
:1010800009F084C010926E040E94C5056B017C01BA
:1010900080916F048093BB00809196049091970497
:1010A000A0919804B0919904892B8A2B8B2BA1F0E5
:1010B0000E94C50500919604109197042091980410
:1010C000309199046C197D098E099F09061717073D
:1010D0002807390708F442C08091BC0083FDD8CFAF
:1010E00085EC8093BC000E94C5056B017C0180915A
:1010F0009404823009F44CC0809192048F3F09F42B
:1011000069C080919204803209F466C08091920493
:10111000803309F463C084E026C0809196049091E6
:101120009704A0919804B0919904892B8A2B8B2B5A
:1011300009F483CF0E94C50500919604109197048D
:1011400020919804309199046C197D098E099F09AA
:10115000061717072807390708F06FCF8091950405
:101160000E94E80785E010929B041092BD04109243
:101170009A04DF91CF911F910F91FF90EF90DF9034
:10118000CF9008959D9191938F5F6DCF85EEA9CFFC
:101190008091960490919704A0919804B09199043D
:1011A000892B8A2B8B2B09F4A2CF0E94C5050091B5
:1011B00096041091970420919804309199046C1929
:1011C0007D098E099F09061717072807390708F0B8
:1011D0008ECFC4CF80E0C7CF82E0C5CF83E0C3CF3E
:1011E000E091370480913604E81730F4F0E0EC54D5
:1011F000FC4F808190E008958FEF9FEF08959091CC
:101200003704809136042FEF3FEF981748F4E92F09
:10121000F0E0EC54FC4F208130E09F5F9093370466
:10122000C90108958091360490913704891B990B68
:101230000895CF92DF92EF92FF920F931F93CF9377
:10124000DF937C01CB018A0120919A04222389F04B
:10125000EB016B01C40ED51ECC15DD0569F069915B
:10126000D701ED91FC910190F081E02DC701099526
:10127000F3CF642F0E94A307C801DF91CF911F9184
:101280000F91FF90EF90DF90CF900895CF93DF9371
:101290001F92CDB7DEB7698320919A042223F9F01B
:1012A0002091BD04203258F021E030E0FC0133836E
:1012B000228390E080E00F90DF91CF91089580919C
:1012C0009B04E82FF0E0E456FB4F998190838F5FF9
:1012D00080939B048093BD0481E090E0ECCF61E0BB
:1012E000CE0101960E94A307F7CF682F84E295E014
:1012F0000C944609CF93C82F81E080939A048CE325
:101300008093BC0410929B041092BD0480E890E08E
:101310000E9475096C2F84E295E00E944609CF91E6
:101320000C940908CF93DF9387FD1BC09091210592
:10133000891304C090912205961799F0D62FC82FD3
:101340008F700E947A098C2F82958F70805F0E9427
:101350007A0980EB8D0F0E947A09C0932105D09302
:101360002205DF91CF9108950F931F93CF93DF93C1
:10137000C0E011E00CE36C2F80E00E949209109312
:101380009A040093BC0410929B041092BD0480E464
:1013900090E00E947509D0E08D2F8F708F3071F42E
:1013A0000E94090810939A040093BC0410929B04B5
:1013B0001092BD0480E490E00E94750990E080E006
:1013C0000E947509DF5FD03839F70E940908CF5FA6
:1013D000C83089F6DF91CF911F910F9108954F92F8
:1013E0005F926F927F928F929F92AF92BF92CF92B5
:1013F000DF92EF92FF920F931F93CF93DF938C01B5
:10140000862F92E090930F05642F0E9492097090AE
:101410002105E801580166246394BCE35B2E15E0C6
:10142000412E88248394912CF50181915F018823BA
:1014300009F470C00E941F07182F8F3FA9F3609214
:101440009A045092BC0410929B041092BD0480E454
:1014500090E00E947509FEE7F71570F06091230592
:1014600084E295E00E9446096091230584E295E0BC
:101470000E94460973947394212F2052330BC901A3
:10148000489E9001499E300D112410E000E0C901F2
:10149000875D9D4F6C019EE79715A0F1F601E00F67
:1014A000F11FE49130E020E0F12CE12C0E2E000C35
:1014B000FF0BC401022E02C0880F991F0A94E2F7A5
:1014C0008E239F23022E02C0880F991F0A94E2F7F1
:1014D000AC01440F551F842B952BE82AF92A2F5F66
:1014E0003F4F2830310529F7809123058E2590E064
:1014F0000E947509809123058E2590E00E94750950
:10150000739473940F5F1F4F0530110521F60E94ED
:1015100009088ACF609122056F5F809121050E94A2
:101520009209992493947CE3872EE5E07E2EAA24E9
:10153000A394B12C8991882309F478C00E941F07D5
:10154000182F8F3FB9F390929A048092BC041092A6
:101550009B041092BD0480E490E00E947509809184
:1015600021058F3788F46091230584E295E00E947D
:1015700046096091230584E295E00E944609809126
:1015800021058E5F80932105E12FE052FF0B7E9EA7
:1015900090017F9E300D112410E000E0C901875DAD
:1015A0009D4F6C01809121058F37B8F5F601E00F52
:1015B000F11FE49130E020E0F12CE12C0E2E000C24
:1015C000FF0BC501022E02C0880F991F0A94E2F793
:1015D0008E239F23022E02C0880F991F0A94E2F7E0
:1015E000AC01440F551F842B952BE82AF92A2F5F55
:1015F0003F4F2830310529F7809123058F2590E052
:101600000E947509809123058F2590E00E9475093D
:10161000809121058E5F809321050F5F1F4F05305C
:10162000110509F0BFCF0E94090884CF60912205FF
:10163000615080912105DF91CF911F910F91FF9013
:10164000EF90DF90CF90BF90AF909F908F907F9062
:101650006F905F904F900C949209BF92CF92DF925F
:10166000EF92FF920F931F93CF93DF9320910F057B
:10167000213009F04EC0C92FD82F6FEF8FEF0E9495
:1016800092090D2F1C2FDD24D3948CE3C82E95E0F6
:10169000B92EF80181918F01882309F447C00E9477
:1016A0001F07C82F8F3FA9F3D0929A04C092BC04A1
:1016B00010929B041092BD0480E490E00E94750992
:1016C0006091230584E295E00E944609C052DD0B3B
:1016D000BC9E9001BD9E300D1124D0E0C0E0C90138
:1016E000875D9D4F7C01F701EC0FFD1FE491809118
:1016F00023058E2790E00E9475092196C530D105FB
:1017000091F7809121058A5F809321050E94090845
:10171000C0CF4FEF6FEFDF91CF911F910F91FF90EF
:10172000EF90DF90CF90BF900C94EF09DF91CF91B5
:101730001F910F91FF90EF90DF90CF90BF90089591
:101740004F925F926F927F92BF92CF92DF92EF9211
:10175000FF920F931F93CF93DF93CDB7DEB72A97F6
:101760000FB6F894DEBF0FBECDBF6B017C01842F96
:1017700010922005622F0E9492091A821982FE019E
:10178000339688E0DF011D928A95E9F700E08AE050
:10179000482E512C612C712CC114D104E104F104A8
:1017A00059F5A0912005E1E0EA0FE0932005B0E0B3
:1017B000A25FBA4F80E312968C93F0E0E25FFA4F9B
:1017C000128280E195E00E942D0BBB24B3948B2DF7
:1017D0002A960FB6F894DEBF0FBECDBFDF91CF9132
:1017E0001F910F91FF90EF90DF90CF90BF907F906F
:1017F0006F905F904F900895BB24B394B00EE1E0DA
:10180000F0E0EC0FFD1FE00FF11D8F01C701B601E5
:10181000A30192010E942D18D8016C9369017A01ED
:101820000B2DC114D104E104F10431F7E09120053E
:10183000A1E0B0E0AC0FBD1FAB0DB11D0E0F1197B5
:10184000E01779F091E09E0FF0E0E25FFA4F8C91A3
:10185000805D8283E92FF0E0E25FFA4F1282E92F88
:10186000EECFE093200580E195E00E942D0BAFCFF5
:10187000DC01FB0112962C91129784819581281727
:10188000190641F491818081813A31F49D7F81E094
:10189000913009F080E008958132E1F79B3029F41E
:1018A00082811F968C9381E008959A3099F7828106
:1018B00050968C93F8CFDC01FB0188E4808389E4A7
:1018C000818384E482831D969C911D979F709F5B0A
:1018D00093831D968D919C9124E0969587952A95EA
:1018E000E1F78F708F5B848385E00895EF92FF921C
:1018F0000F931F93CF93DF93FB012081213871F564
:101900002381223259F5DC0112964C9124813581D4
:101910004217130619F5EC010B851C85F12CE12CFF
:101920000115110589F0F8014481558162817381A7
:1019300080E80E9463048F3F980749F0E80EF91E83
:10194000D8010D911C91ECCF81E08F87C701DF9109
:10195000CF911F910F91FF90EF90089590E080E05C
:10196000F6CFCF93DF93CDB7DEB769970FB6F89474
:10197000DEBF0FBECDBFFC01DB018C918F5F8C936E
:101980009E012D5F3F4F8DE0D9011D928A95E9F7A9
:1019900029E0298384E08A8391E09D8383E08E831C
:1019A0002A8721E22B879C879D879F8722E2288BAD
:1019B00027E02B8B25E02C8B8E8B20E430E0388FBA
:1019C0002F8B998F82818B8395858685998B8A8BC6
:1019D000838180688D8B49E150E0BE016F5F7F4F4E
:1019E00080E00E94630469960FB6F894DEBF0FBED4
:1019F000CDBFDF91CF910895CF92DF92EF92FF920A
:101A00000F931F93CF93DF936C01EB017B01E40EE7
:101A1000F51E10E000E0CE15DF0581F069916D3014
:101A2000D1F3D601ED91FC910190F081E02DC6013A
:101A30000995892B19F00F5F1F4FEDCFC801DF917A
:101A4000CF911F910F91FF90EF90DF90CF9008956D
:101A5000EF92FF921F93CF93DF93EC01162FE8E7ED
:101A6000E60F683880F4E62FF0E067FF4FC0E058DB
:101A7000F10921E030E001C0220FEA95EAF78C81FC
:101A8000822B8C83E0E08E818E17D9F08F81E8174E
:101A9000C1F08885E817A9F08985E81791F08A8553
:101AA000E81779F08B85E81761F0DE01169690E073
:101AB00080E02D9121114EC08C0F9D1FDC011696E8
:101AC000EC93CE0104960E94B606EE24E394F12C2A
:101AD000183838F11858DE0186E0112341F01696C7
:101AE0009C911697191303C016961C921697815055
:101AF00011968111F2CFCE0104960E94B606C7015D
:101B0000DF91CF911F91FF90EF900895E455FF4F23
:101B1000E491E11118C081E090E09B838A83F12C6D
:101B2000E12CE12FF0E017FF21C0E058F10981E03E
:101B300090E001C0880FEA95EAF780959C8189239F
:101B40008C8310E0C8CFE7FF9ECF8C8182608C83AE
:101B5000EF7799CF01968630910509F0AACF81E001
:101B600090E09B838A83F12CE12CB2CFE455FF4FA8
:101B70001491112309F4C3CF17FFADCF8C818D7F52
:101B80008C831F77A8CF089590E080E0089561E0EE
:101B900085E00C94660520916A0430916B04809175
:101BA0005404909155042130310579F42AE2FC0166
:101BB000EE5BFB4F208311828A30910528F4019659
:101BC0009093550480935404089522303105A1F771
:101BD0002DE2EDCF0E94B40940E060E08BE492E09A
:101BE0000E94EF0960913C0470913D0490E080E018
:101BF0002FEF4FEF0E94A00B42E060E080E592E003
:101C00000E94EF09609167057091680590E080E09F
:101C10002FEF4FEF0E94A00B8091510444E060E051
:101C2000882371F085E592E00E94EF0946E060E0CC
:101C30008AE692E00E94EF0982E792E00C942D0B75
:101C40008FE592E0F1CF009769F0FC010190002050
:101C5000E9F73197AF01481B590BBC0187E595E0C7
:101C60000C94FC0C90E080E0089585ED8093BC001E
:101C70008091960490919704A0919804B091990452
:101C80000796A11DB11D23E0B695A7959795879559
:101C90002A95D1F72091BC0024FD03C01092940432
:101CA0000895409196045091970460919804709122
:101CB0009904452B462B472B69F30097A105B105E5
:101CC00041F025E32A95F1F700000197A109B10938
:101CD000E1CF809195040C94E8071F920F920FB604
:101CE0000F9211248F939F938091E1009091E100D6
:101CF000937F9093E10083FF0FC01092E90091E081
:101D00009093EB001092EC0092E39093ED00109210
:101D10006D0498E09093F00082FF22C093E09093CE
:101D2000E9009091F200992319F09AE39093E8006A
:101D300090912F04992341F090912F04915090930A
:101D40002F04911101C05D9890916C04992341F08A
:101D500090916C04915090936C04911101C028985B
:101D600084FF18C08091E2008E7E81608093E20043
:101D70008091E1008F7E8093E100809130048E7E1F
:101D80008061809330049F918F910F900FBE0F90D0
:101D90001F90189580FFF7CF8091E2008E7E8061C2
:101DA0008093E2008091E1008E7E8093E10080913B
:101DB00030048E7E8160E5CF1F920F920FB60F9296
:101DC0001124CF92DF92EF92FF920F931F932F93E4
:101DD0003F934F935F936F937F938F939F93AF93B3
:101DE000BF93EF93FF93CF93DF93CDB7DEB76C979D
:101DF000DEBFCDBF1092E9008091E80083FF25C0CF
:101E000068E0CE0145960E949F0482EF8093E8002F
:101E10008D8987FF39C09091E80090FFFCCF982F03
:101E2000907609F034C19E894F89588D2F89F88C9E
:101E3000911131C0803861F5809131048093F100B7
:101E40001092F1008EEF8093E8006C960FB6F89434
:101E5000DEBF0FBECDBFDF91CF91FF91EF91BF915C
:101E6000AF919F918F917F916F915F914F913F9132
:101E70002F911F910F91FF90EF90DF90CF900F90D7
:101E80000FBE0F901F9018959EEF9093E800C7CF5C
:101E90001092F100D5CF913059F48111D3CF413058
:101EA000510581F6809131048D7F80933104CACF32
:101EB000933049F48111C6CF4130510519F6809114
:101EC00031048260F2CF953041F48091E80080FFC8
:101ED000FCCF20682093E300B5CF963009F0A9C06D
:101EE0000B8D1C8D22E01092E90010922D041092AF
:101EF0002C04F2122EC010922B0410922A040E947D
:101F0000C0041F8299E09983FA8291E09E8390EA4F
:101F100098879AEF998720912C0430912D04275FA0
:101F20003F4F3C832B838D831092E90010922D0448
:101F300010922C0410932B0400932A0449E050E0E3
:101F4000BE016F5F7F4F80E00E9463040E94C00467
:101F500079CF10932B0400932A040E94AC04DC0177
:101F600012960D911C910115110509F451C1D8016A
:101F7000ED91FC910480F581E02DBE016B5E7F4FF9
:101F8000C8010995009709F03EC1F8010085118547
:101F9000EACFF3E0FF120EC08F89882309F440C016
:101FA000823061F440E86DE087E192E00E94300405
:101FB000811148CF81E28093EB0047CF813029F433
:101FC00040E86BE08BE092E0F1CF833099F70E941C
:101FD000AC04DC011296ED90FC908E010F5F1F4F58
:101FE0006801E114F10479F0D701ED91FC910680CC
:101FF000F781E02DB801C7010995080F111DF70100
:10200000E084F184EECFD8011C92F601019000200B
:10201000E9F73197BF016C197D0940E0C601C6CFD1
:1020200065EF71E0FB01449150E080E80E94630499
:1020300009CF973009F4BECF983021F481E0809326
:10204000F10000CF993009F0FDCE837009F0B2CFD6
:10205000EDE0F1E081E031E096E32191222371F09F
:102060008093E9003093EB00DF0111972C912093CE
:10207000EC009093ED008F5F873079F78EE78093C7
:10208000EA001092EA008F8980936D04DBCE8B8D7D
:102090009C8D1092E90010922D0410922C049093C4
:1020A0002B0480932A04898D811192C08E899D8989
:1020B000913A49F4813209F07DCF47E050E064E085
:1020C00071E080E0B3CF913209F074CF833269F4CC
:1020D0008F89988DB0E0A0E080930001909301017A
:1020E000A0930201B0930301ADCE803269F48091D8
:1020F000E80082FFFCCF67E084E091E00E949F044B
:102100008BEF8093E8009ECE823209F09BCE8F89C0
:1021100080930B01EEEFFFE7859194918B3F9C4DEF
:1021200051F1E0E0F8E08091040190910501A09167
:102130000601B0910701803B9440A105B105F1F47F
:1021400080910B0180FD1AC0EE3F8AE0F80789F507
:1021500087E797E7918380838091600080932E04C6
:1021600088E19BE00FB6F894A895809360000FBEBD
:102170009093600067CEEEEFFAE0D5CF8081918139
:102180008737974709F05ECEA895809160008861F7
:102190008093600080912E0480936000EE3F2AE0DF
:1021A000F20789F08091FE0A9091FF0A9183808363
:1021B00049CE808191818737980751F29093FF0A29
:1021C0008093FE0AC5CF1092FF0A1092FE0A3ACE03
:1021D0000E94AC04DC0112960D911C9101151105B1
:1021E00009F4E8CED801ED91FC910190F081E02D49
:1021F000BE016B5E7F4FC8010995811123CEF801A6
:1022000000851185EBCF181619060CF41BCED2CE23
:10221000F1E0FF12BECE69EF71E004CF1F920F9282
:102220000FB60F9211242F933F938F939F93AF93E9
:10223000BF938091380490913904A0913A04B091F1
:102240003B043091190423E0230F2D3758F50196F4
:10225000A11DB11D20931904809338049093390473
:10226000A0933A04B0933B0480911A0490911B040C
:10227000A0911C04B0911D040196A11DB11D809375
:102280001A0490931B04A0931C04B0931D04BF91E7
:10229000AF919F918F913F912F910F900FBE0F9013
:1022A0001F90189526E8230F0296A11DB11DD2CFCD
:1022B0001F920F920FB60F9211242F933F934F93BB
:1022C0005F936F937F938F939F93AF93BF93EF939E
:1022D000FF938091B900887F803609F44AC0F0F5F9
:1022E000883209F4A7C018F5803109F49BC0B8F40E
:1022F000882309F4F9C0883009F494C0FF91EF9164
:10230000BF91AF919F918F917F916F915F914F910D
:102310003F912F910F900FBE0F901F90189588310D
:1023200009F488C0803251F78093920414C080343D
:1023300009F49DC040F48033B9F38833F9F68093F3
:10234000920485ECB0C0803509F485C0883509F465
:1023500096C0883499F60E94350ED0CF883909F49A
:102360008CC038F5883729F050F4883611F0803762
:1023700029F683E0809394041092170457C088389C
:1023800009F47BC0803919F0803809F0B7CF80910B
:102390001704803208F071C0E091170481E08E0FBD
:1023A000809317048091BB00F0E0E950FC4F8083DC
:1023B0003DC0803B39F0E0F4803A09F479C0883AB6
:1023C00009F09CCF84E0809394041092F60310925D
:1023D000F503E0913404F091350409958091F503FB
:1023E00081110FC081E08093F5031092D50309C0DD
:1023F000803C09F4A6CF883C09F4A3CF883B09F0C0
:102400007DCFE091F60381E08E0F8093F603F0E03C
:10241000EB52FC4F80818093BB009091F60380913A
:10242000F50329C080916F048093BB0085EC8093F5
:10243000BC0064CF9091910480919004981758F556
:10244000E091910481E08E0F80939104F0E0E059D7
:10245000FB4F8081E9CFE091910481E08E0F809362
:1024600091048091BB00F0E0E059FB4F8083909194
:102470009104809190049817C8F285E8D8CFE09134
:10248000910481E08E0F809391048091BB00F0E075
:10249000E059FB4F80838091930481115CCF81E0F0
:1024A00080936E0484EA8093BC001092940426CF3B
:1024B00085EC8093BC0010929404809117048032C4
:1024C00030F4E0911704F0E0E950FC4F1082609185
:1024D000170470E0E0913204F091330487EF93E049
:1024E0000995109217040ACF1092920434CFCF931B
:1024F0001092C1041092C00448EE53E060E070E016
:102500004093C2045093C3046093C4047093C50401
:1025100083E192E09093BF048093BE048FEF9FEF1E
:102520009093CB048093CA0481E080930F051092AE
:102530002005109221051092220510922305109279
:10254000270510922605409328055093290560938E
:102550002A0570932B0525E232E030932505209360
:10256000240510925A051092590523E432E0309365
:1025700058052093570590914F05911112C0109264
:102580004A05109249052EE935E030934C05209319
:102590004B052FE230E030934E0520934D0580939C
:1025A0004F058091410581112AC0C1E0C0933405D7
:1025B000C09335058AE395E09093370580933605FF
:1025C000109239051092380587E392E09093310517
:1025D0008093300510923C0510923B0510923E0509
:1025E00010923D05C0933F05C093400581EC809358
:1025F0003A050E94AC040E941203C0934105E09189
:102600003B05F0913C05309759F589E495E09093AE
:102610003C0580933B0580913D0590913E052091BE
:102620004D0530914E05820F931F90933E05809388
:102630003D05209167053091680550E040E060E677
:102640007BEC81E090E00E942D182093630530938D
:1026500064054093650550936605CF910895FC018C
:10266000808191810097D9F789E495E091838083F7
:10267000D2CF789484B5826084BD84B5816084BDF6
:1026800085B5826085BD85B5816085BD80916E0010
:10269000816080936E001092810080918100826041
:1026A000809381008091810081608093810080917E
:1026B000800081608093800080919100826080938F
:1026C00091008091910081608093910080919000B1
:1026D0008160809390008091C10084608093C100EC
:1026E0008091C10082608093C1008091C1008160AF
:1026F0008093C1008091C30081608093C30080916A
:10270000C00082608093C0008091C200816080938D
:10271000C20080917A00846080937A0080917A0070
:10272000826080937A0080917A00816080937A0041
:1027300080917A00806880937A0010926D041092E4
:102740003104109230048091D70081608093D700CB
:1027500080EA8093D80089B5806189BD89B582609F
:1027600089BD09B400FEFDCF61E070E080E090E03B
:102770000E94EA058091D8008F7C80618093D80008
:102780008091E000807F8093E0008091E1008E7E68
:102790008093E1008DE08093E200559A209A5D9845
:1027A0002898109237041092360410929B041092CD
:1027B000BD040E94CA0780E094E0909335048093A2
:1027C000340481E094E09093330480933204809148
:1027D000B8008CE08093B80082E080930E0580E220
:1027E0000E947A0982E00E947A090E94B40960E09E
:1027F00080E00E9492098EEA0E947A0985ED0E948B
:102800007A0980E80E947A0988EA0E947A098FE3AF
:102810000E947A0983ED0E947A0980E00E947A0979
:1028200080E40E947A098DE80E947A0984E10E947E
:102830007A0980E20E947A0980E00E947A0981EA9E
:102840000E947A0988EC0E947A098AED0E947A092E
:1028500082E10E947A0981E80E947A098FEC0E9445
:102860007A0989ED0E947A0981EF0E947A098BED3D
:102870000E947A0980E40E947A0984EA0E947A0917
:1028800086EA0E947A098FEA0E947A090E94B409B6
:1028900086EA0E947A0981EA0E947A0988EC0E94FD
:1028A0007A0981E80E947A098FEF0E947A0990E004
:1028B00080E00E940318C82F81E090E00E94031876
:1028C000282F30E0322F2227C20FD32FD11DD093D3
:1028D0003D04C0933C04CE0165E070E00E941918ED
:1028E00070936805609367050E94EA0D9E0150E0B1
:1028F00040E060EC78EB89E590E00E942D18209391
:10290000630530936405409365055093660581E047
:1029100090E0909353048093520410925F041092BD
:102920005E0457985F9A6E98769A60E083E10E9401
:102930009405549A5C9861E085E00E9494053E9A63
:10294000469860E08AE00E94940560E080E10E9481
:1029500094058AE00E943D0521E0892B09F420E0DE
:1029600020933E0440ECC42E48EBD42E49E5E42EDF
:10297000F12C50E0252E50E0352EC2E0D0E08AE068
:102980000E943D0577247394009709F4712C70928E
:102990003F0420913E04721609F44AC0892B09F0C5
:1029A00047C080E10E943D0520913C0430913D04E8
:1029B000892B09F4DDC12150310930933D04209366
:1029C0003C0480903C0490903D04C40165E070E0BC
:1029D0000E9419188B017093680560936705B12CEC
:1029E000A12CC701B601A50194010E942D182093C6
:1029F000630530936405409365055093660520E0B8
:102A000040E3C501B4010E94A00B4FEF6FEF84E0DB
:102A100093E00E94EF09B80190E080E022E040E3FB
:102A20000E94A00B4FEF6FEF84E093E00E94EF094C
:102A300070923E048EE00E943D05892B09F064C02F
:102A40008FB7F8948090380490903904A0903A049D
:102A5000B0903B048FBF8EE00E943D05892BD9F3D7
:102A60002FB7F8948091380490913904A0913A04DA
:102A7000B0913B042FBF88199909AA09BB09893E67
:102A80009340A105B105E8F060913C0410913D042C
:102A900090E080E00E940B18612F81E090E00E949E
:102AA0000B180E94B40942E060E086E792E00E94C1
:102AB000EF0968EE73E080E090E00E94EA050E9472
:102AC000EA0D2FB7F8948091380490913904A091C1
:102AD0003A04B0913B042FBF88199909AA09BB0990
:102AE00085369105A105B10578F08091510431E05A
:102AF00044E064E5832780935104882309F43BC1B3
:102B000080E892E00E94EF0966993AC04F9938C078
:102B100080916A0490916B04892B91F52091630553
:102B20003091640540916505509166058091680477
:102B300090916904019709F021C1A3E0B0E00E94DF
:102B400052186093640470936504809366049093B4
:102B500067040E94C70D5C9AD0936B04C0936A040B
:102B6000D0936904C09368040E94CB0D0E94C505F0
:102B70006093600470936104809362049093630493
:102B80008091680490916904019721F410925F0488
:102B900010925E04669B06C080915E0490915F0473
:102BA000892B99F180916A0490916B04892B69F5C6
:102BB00010925F0410925E04809163059091640509
:102BC000A0916505B09166058093640490936504B7
:102BD000A0936604B09367040E94C70D5C9A81E0DD
:102BE00090E090936B0480936A04909369048093BF
:102BF00068040E94C505609360047093610480932B
:102C00006204909363040E94CB0D4F9931C0809170
:102C10006A0490916B04892B59F5209163053091DA
:102C200064054091650550916605A3E0B0E00E94FF
:102C300052186093640470936504809366049093C3
:102C400067040E94C70D5C9AD0936B04C0936A041A
:102C5000D0936904C09368040E94C5056093600422
:102C60007093610480936204909363040E94CB0D7F
:102C700080916A0490916B04029741F4669906C0B2
:102C800081E090E090935F0480935E040E94C5050C
:102C900000916004109161042091620430916304FA
:102CA000601B710B820B930B0091640410916504FF
:102CB0002091660430916704061717072807390723
:102CC000A0F484E00E943D05892B79F060E085E066
:102CD0000E9466055C980E94C50560935A04709333
:102CE0005B0480935C0490935D040E94C505809012
:102CF000630590906405A0906505B090660500910D
:102D00006004109161042091620430916304AB016E
:102D1000BC01401B510B620B730B809164049091BA
:102D20006504A0916604B0916704880D991DAA1DE1
:102D3000BB1D84179507A607B70720F410926B04F4
:102D400010926A0400916A0410916B04023011051C
:102D500059F5669906C081E090E090935F048093F6
:102D60005E0481E090E090935904809358041FC062
:102D70002F5F3F4F22CE86E692E0C4CE20936404BC
:102D80003093650440936604509367040E94C70D16
:102D90005C9A81E090E090936B0480936A04909336
:102DA000690480936804E0CE01151105D1F60E94F4
:102DB000C50540905A0450905B0460905C0470908C
:102DC0005D049B01AC012419350946095709290105
:102DD0003A01A3E0B0E0A50194010E945218969533
:102DE000879577956795641575058605970508F0AD
:102DF000BDC08091580490915904892B09F4B6C044
:102E0000012B09F0B3C010925904109258040E948B
:102E1000C50560936004709361048093620490938D
:102E2000630481E090E09093570480935604E0910E
:102E30004D04F0914E04EE5BFB4FAF014254544001
:102E4000892B49F0819131E020E0811101C030E00F
:102E5000832F922FF2CF50934E0440934D04109243
:102E6000500410924F044115510509F47BC001E94B
:102E700011E090E080E0D801ED91FD918D0120817D
:102E80002223B9F04F0162E474E030E020E024171F
:102E9000350779F1D401BD904D01BB2051F1DB0123
:102EA000AD90BD01BA1003C02F5F3F4FF0CF019628
:102EB000E2CF80915104882309F450C081E992E067
:102EC0000E94230E02E414E020914D0430914E0440
:102ED000C801825494408217930740F4F80161912D
:102EE0008F0187E595E00E94280DEECF84E992E0FE
:102EF00033C0B9016F5F7F4F64177507C1F6E20FEA
:102F0000F31F20812111D3CF21E030E03093410421
:102F100020934004880F991FFC01ED5EFE4F008155
:102F20001181B2E004381B0791F410924104109211
:102F3000400480915104882389F08CE892E00E943B
:102F4000230E8091400490914104892B39F08091A7
:102F50005104882319F0C8010E94230E10924E04D8
:102F600010924D04109255041092540480916A04FA
:102F700090916B04892B09F03FC00E94C505009118
:102F80005A0410915B0420915C0430915D044B0164
:102F90005C01801A910AA20AB30A2091630530915C
:102FA00064054091650550916605A7E0B0E00E9478
:102FB0005218681579058A059B05F0F4809156042E
:102FC00090915704892BC1F0809152049091530441
:102FD000892B41F080915104882321F084E093E013
:102FE0000E94230E81E090E090935304809352045A
:102FF00010925704109256042114310409F4BFCCE6
:103000000E940000BCCCF999FECF92BD81BDF89A18
:10301000992780B50895262FF999FECF1FBA92BD42
:1030200081BD20BD0FB6F894FA9AF99A0FBE0196A9
:103030000895AA1BBB1B51E107C0AA1FBB1FA617FF
:10304000B70710F0A61BB70B881F991F5A95A9F751
:1030500080959095BC01CD010895052E97FB1EF437
:1030600000940E94441857FD07D00E945D1807FC89
:1030700003D04EF40C94441850954095309521950A
:103080003F4F4F4F5F4F0895909580957095619594
:103090007F4F8F4F9F4F0895EE0FFF1F0590F491C4
:1030A000E02D09940E947F18A59F900DB49F900D6C
:1030B000A49F800D911D11240895A1E21A2EAA1B30
:1030C000BB1BFD010DC0AA1FBB1FEE1FFF1FA217D8
:1030D000B307E407F50720F0A21BB30BE40BF50BD5
:1030E000661F771F881F991F1A9469F7609570955E
:1030F000809590959B01AC01BD01CF010895A29FE1
:10310000B001B39FC001A39F700D811D1124911DBB
:10311000B29F700D811D1124911D0895F894FFCF69
:10312000FFFFFFFF00E100000000000000C1808100
:10313000000000970299029B029D029F02A102A338
:1031400002A502A702A902AB02AD02AF02B102B30F
:1031500002B502B702B902BB02BD02BF02C102C37F
:1031600002C502C802CB02CD02CF02D1023603D77C
:10317000027402DA02DC02DE02E002E202E402E6AB
:1031800002E802EA0252035203EC02EE02F002F2FB
:1031900002F4027C03F602F802FA024E028402FCF8
:1031A00002FE0206030F03840284028402840205E5
:1031B000037B03560337031B03D302B10379038058
:1031C00003B00330039B03D2023803740331031AA4
:1031D000037303AF037C037A037203AE035D036BD7
:1031E000032A0364031F032403D10236039A03292D
:1031F000032F0335037803AD033B03550341036AF3
:103200000347034D03A10354035B03620369037087
:1032100003770371037E0385038C03AA039203994A
:10322000039F03A003AC03AB03A903A8030503009A
:10323000000000820309079A049803E503A303C171
:10324000030000000046091909C40DFF031209FF1D
:1032500008F00800000000380CB10C760C5B0C0084
:10326000000000280DFC0CC40DC30D43504D3D0063
:1032700057504D3D0057696E4B65792D4F6E005785
:10328000696E4B65792D4F6666005665722E203D3E
:103290002000322E310043504D205361766564008A
:1032A0004F6E200070657265626F79005B5A505DE9
:1032B00000205B005D2000410042005700470044B1
:1032C00000450056005A0049004A004B004C004D92
:1032D000004E004F0050005200530054005500466D
:1032E00000480043006368007368005100590058AB
:1032F000002A2A2D2A2A0079610032003300340086
:103300003500360037003800390030003A003B0005
:103310002800270022002F003F002C004000202A18
:10332000454E442A2000202A6261636B2A20002037
:103330002A6C61796F75742A20002A2D2D2A002DA0
:103340002A2D2D002D2A2A2D002A2D2D2D2D002A43
:103350002A2D2D2D002A2A2A2D2D002D2A2A2A2A0F
:10336000002D2D2D2A2A002D2D2D2D2D002E2E2E17
:103370002E2E2E002D2D2D2A2A2A002D2A2D2A2DE3
:103380002A002D2A2D2D2A2D002A2D2D2D2D2A0003
:103390002A2D2A2A2D2A002D2A2A2A2A2D002A2AD5
:1033A0002D2D2A2A002D2D2A2A2D2D002D2A2A2ABC
:1033B0002D002A2D2D2A2D2A002A2A2D2A2D002AD9
:1033C0002D2A2D2A2D2A2D002A2A2A2A2A2A2A2A7B
:0433D0002A2A0000A5
:00000001FF
